{
  "_format": "hh-sol-artifact-1",
  "contractName": "Marketplace",
  "sourceName": "src/backend/contracts/Marketplace.sol",
  "abi": [
    {
      "inputs": [
        {
          "internalType": "uint256",
          "name": "_feePercent",
          "type": "uint256"
        }
      ],
      "stateMutability": "nonpayable",
      "type": "constructor"
    },
    {
      "anonymous": false,
      "inputs": [
        {
          "indexed": false,
          "internalType": "uint256",
          "name": "itemId",
          "type": "uint256"
        },
        {
          "indexed": true,
          "internalType": "address",
          "name": "nft",
          "type": "address"
        },
        {
          "indexed": false,
          "internalType": "uint256",
          "name": "tokenId",
          "type": "uint256"
        },
        {
          "indexed": false,
          "internalType": "uint256",
          "name": "price",
          "type": "uint256"
        },
        {
          "indexed": true,
          "internalType": "address",
          "name": "seller",
          "type": "address"
        },
        {
          "indexed": true,
          "internalType": "address",
          "name": "buyer",
          "type": "address"
        }
      ],
      "name": "Bought",
      "type": "event"
    },
    {
      "anonymous": false,
      "inputs": [
        {
          "indexed": false,
          "internalType": "uint256",
          "name": "id",
          "type": "uint256"
        },
        {
          "indexed": false,
          "internalType": "uint256",
          "name": "tipAmount",
          "type": "uint256"
        },
        {
          "indexed": false,
          "internalType": "address payable",
          "name": "owner",
          "type": "address"
        }
      ],
      "name": "NFTTipped",
      "type": "event"
    },
    {
      "anonymous": false,
      "inputs": [
        {
          "indexed": false,
          "internalType": "uint256",
          "name": "itemId",
          "type": "uint256"
        },
        {
          "indexed": true,
          "internalType": "address",
          "name": "nft",
          "type": "address"
        },
        {
          "indexed": false,
          "internalType": "uint256",
          "name": "tokenId",
          "type": "uint256"
        },
        {
          "indexed": false,
          "internalType": "uint256",
          "name": "price",
          "type": "uint256"
        },
        {
          "indexed": true,
          "internalType": "address",
          "name": "seller",
          "type": "address"
        }
      ],
      "name": "Offered",
      "type": "event"
    },
    {
      "inputs": [],
      "name": "feeAccount",
      "outputs": [
        {
          "internalType": "address payable",
          "name": "",
          "type": "address"
        }
      ],
      "stateMutability": "view",
      "type": "function"
    },
    {
      "inputs": [],
      "name": "feePercent",
      "outputs": [
        {
          "internalType": "uint256",
          "name": "",
          "type": "uint256"
        }
      ],
      "stateMutability": "view",
      "type": "function"
    },
    {
      "inputs": [
        {
          "internalType": "uint256",
          "name": "_itemId",
          "type": "uint256"
        }
      ],
      "name": "getTotalPrice",
      "outputs": [
        {
          "internalType": "uint256",
          "name": "",
          "type": "uint256"
        }
      ],
      "stateMutability": "view",
      "type": "function"
    },
    {
      "inputs": [],
      "name": "itemCount",
      "outputs": [
        {
          "internalType": "uint256",
          "name": "",
          "type": "uint256"
        }
      ],
      "stateMutability": "view",
      "type": "function"
    },
    {
      "inputs": [
        {
          "internalType": "uint256",
          "name": "",
          "type": "uint256"
        }
      ],
      "name": "items",
      "outputs": [
        {
          "internalType": "uint256",
          "name": "itemId",
          "type": "uint256"
        },
        {
          "internalType": "contract IERC721",
          "name": "nft",
          "type": "address"
        },
        {
          "internalType": "uint256",
          "name": "tokenId",
          "type": "uint256"
        },
        {
          "internalType": "uint256",
          "name": "price",
          "type": "uint256"
        },
        {
          "internalType": "address payable",
          "name": "seller",
          "type": "address"
        },
        {
          "internalType": "address payable",
          "name": "owner",
          "type": "address"
        },
        {
          "internalType": "bool",
          "name": "sold",
          "type": "bool"
        },
        {
          "internalType": "uint256",
          "name": "tipAmount",
          "type": "uint256"
        }
      ],
      "stateMutability": "view",
      "type": "function"
    },
    {
      "inputs": [
        {
          "internalType": "contract IERC721",
          "name": "_nft",
          "type": "address"
        },
        {
          "internalType": "uint256",
          "name": "_tokenId",
          "type": "uint256"
        },
        {
          "internalType": "uint256",
          "name": "_price",
          "type": "uint256"
        }
      ],
      "name": "makeItem",
      "outputs": [],
      "stateMutability": "nonpayable",
      "type": "function"
    },
    {
      "inputs": [
        {
          "internalType": "uint256",
          "name": "_itemId",
          "type": "uint256"
        }
      ],
      "name": "purchaseItem",
      "outputs": [],
      "stateMutability": "payable",
      "type": "function"
    },
    {
      "inputs": [
        {
          "internalType": "uint256",
          "name": "_itemId",
          "type": "uint256"
        }
      ],
      "name": "sellItem",
      "outputs": [],
      "stateMutability": "payable",
      "type": "function"
    },
    {
      "inputs": [
        {
          "internalType": "uint256",
          "name": "_id",
          "type": "uint256"
        }
      ],
      "name": "tipOwner",
      "outputs": [],
      "stateMutability": "payable",
      "type": "function"
    }
  ],
  "bytecode": "0x60c06040523480156200001157600080fd5b5060405162001caa38038062001caa83398181016040528101906200003791906200009c565b60016000819055503373ffffffffffffffffffffffffffffffffffffffff1660808173ffffffffffffffffffffffffffffffffffffffff1660601b815250508060a0818152505050620000ec565b6000815190506200009681620000d2565b92915050565b600060208284031215620000af57600080fd5b6000620000bf8482850162000085565b91505092915050565b6000819050919050565b620000dd81620000c8565b8114620000e957600080fd5b50565b60805160601c60a051611b8762000123600039600081816106410152610a420152600081816106170152610c680152611b876000f3fe6080604052600436106100865760003560e01c806391b6be9a1161005957806391b6be9a14610128578063bfb231d214610144578063ca7dd37514610188578063d38ea5bf146101c5578063fa00afc7146101e157610086565b80635611b8c81461008b57806365e17c9d146100a75780636bfb0d01146100d25780637fd6f15c146100fd575b600080fd5b6100a560048036038101906100a09190611332565b61020a565b005b3480156100b357600080fd5b506100bc610615565b6040516100c991906114d9565b60405180910390f35b3480156100de57600080fd5b506100e7610639565b6040516100f4919061162b565b60405180910390f35b34801561010957600080fd5b5061011261063f565b60405161011f919061162b565b60405180910390f35b610142600480360381019061013d9190611332565b610663565b005b34801561015057600080fd5b5061016b60048036038101906101669190611332565b610987565b60405161017f989796959493929190611646565b60405180910390f35b34801561019457600080fd5b506101af60048036038101906101aa9190611332565b610a3c565b6040516101bc919061162b565b60405180910390f35b6101df60048036038101906101da9190611332565b610a9f565b005b3480156101ed57600080fd5b50610208600480360381019061020391906112e3565b610eb0565b005b60008111801561021c57506001548111155b61025b576040517f08c379a00000000000000000000000000000000000000000000000000000000081526004016102529061154b565b60405180910390fd5b60006002600083815260200190815260200160002060405180610100016040529081600082015481526020016001820160009054906101000a900473ffffffffffffffffffffffffffffffffffffffff1673ffffffffffffffffffffffffffffffffffffffff1673ffffffffffffffffffffffffffffffffffffffff16815260200160028201548152602001600382015481526020016004820160009054906101000a900473ffffffffffffffffffffffffffffffffffffffff1673ffffffffffffffffffffffffffffffffffffffff1673ffffffffffffffffffffffffffffffffffffffff1681526020016005820160009054906101000a900473ffffffffffffffffffffffffffffffffffffffff1673ffffffffffffffffffffffffffffffffffffffff1673ffffffffffffffffffffffffffffffffffffffff1681526020016005820160149054906101000a900460ff1615151515815260200160068201548152505090503373ffffffffffffffffffffffffffffffffffffffff16816080015173ffffffffffffffffffffffffffffffffffffffff161415610436576040517f08c379a000000000000000000000000000000000000000000000000000000000815260040161042d906115eb565b60405180910390fd5b806080015173ffffffffffffffffffffffffffffffffffffffff166108fc349081150290604051600060405180830381858888f19350505050158015610480573d6000803e3d6000fd5b50348160e0018181516104939190611743565b9150818152505080600260008481526020019081526020016000206000820151816000015560208201518160010160006101000a81548173ffffffffffffffffffffffffffffffffffffffff021916908373ffffffffffffffffffffffffffffffffffffffff160217905550604082015181600201556060820151816003015560808201518160040160006101000a81548173ffffffffffffffffffffffffffffffffffffffff021916908373ffffffffffffffffffffffffffffffffffffffff16021790555060a08201518160050160006101000a81548173ffffffffffffffffffffffffffffffffffffffff021916908373ffffffffffffffffffffffffffffffffffffffff16021790555060c08201518160050160146101000a81548160ff02191690831515021790555060e082015181600601559050507faecf5b876d33d32fc589c904cf29d60963cba0189f459c2e3b30b6cf12ed72d5828260e001518360800151604051610609939291906116c4565b60405180910390a15050565b7f000000000000000000000000000000000000000000000000000000000000000081565b60015481565b7f000000000000000000000000000000000000000000000000000000000000000081565b600260005414156106a9576040517f08c379a00000000000000000000000000000000000000000000000000000000081526004016106a09061160b565b60405180910390fd5b600260008190555060006002600083815260200190815260200160002090506000821180156106da57506001548211155b610719576040517f08c379a0000000000000000000000000000000000000000000000000000000008152600401610710906115ab565b60405180910390fd5b3373ffffffffffffffffffffffffffffffffffffffff168160050160009054906101000a900473ffffffffffffffffffffffffffffffffffffffff1673ffffffffffffffffffffffffffffffffffffffff16146107ab576040517f08c379a00000000000000000000000000000000000000000000000000000000081526004016107a2906115cb565b60405180910390fd5b8060010160009054906101000a900473ffffffffffffffffffffffffffffffffffffffff1673ffffffffffffffffffffffffffffffffffffffff166323b872dd333084600201546040518463ffffffff1660e01b8152600401610810939291906114f4565b600060405180830381600087803b15801561082a57600080fd5b505af115801561083e573d6000803e3d6000fd5b5050505060008160050160146101000a81548160ff021916908315150217905550308160050160006101000a81548173ffffffffffffffffffffffffffffffffffffffff021916908373ffffffffffffffffffffffffffffffffffffffff1602179055506108ab306111f7565b3073ffffffffffffffffffffffffffffffffffffffff168160040160009054906101000a900473ffffffffffffffffffffffffffffffffffffffff1673ffffffffffffffffffffffffffffffffffffffff168260010160009054906101000a900473ffffffffffffffffffffffffffffffffffffffff1673ffffffffffffffffffffffffffffffffffffffff167f8b4c9c8a607d67b321582dd8461041b1dc2ceeca70c8b7f37f8e02095cf2e76d8585600201548660030154604051610973939291906116fb565b60405180910390a450600160008190555050565b60026020528060005260406000206000915090508060000154908060010160009054906101000a900473ffffffffffffffffffffffffffffffffffffffff16908060020154908060030154908060040160009054906101000a900473ffffffffffffffffffffffffffffffffffffffff16908060050160009054906101000a900473ffffffffffffffffffffffffffffffffffffffff16908060050160149054906101000a900460ff16908060060154905088565b600060647f00000000000000000000000000000000000000000000000000000000000000006064610a6d9190611743565b6002600085815260200190815260200160002060030154610a8e91906117ca565b610a989190611799565b9050919050565b60026000541415610ae5576040517f08c379a0000000000000000000000000000000000000000000000000000000008152600401610adc9061160b565b60405180910390fd5b60026000819055506000610af882610a3c565b90506000600260008481526020019081526020016000209050600083118015610b2357506001548311155b610b62576040517f08c379a0000000000000000000000000000000000000000000000000000000008152600401610b59906115ab565b60405180910390fd5b81341015610ba5576040517f08c379a0000000000000000000000000000000000000000000000000000000008152600401610b9c9061158b565b60405180910390fd5b8060050160149054906101000a900460ff1615610bf7576040517f08c379a0000000000000000000000000000000000000000000000000000000008152600401610bee9061152b565b60405180910390fd5b8060040160009054906101000a900473ffffffffffffffffffffffffffffffffffffffff1673ffffffffffffffffffffffffffffffffffffffff166108fc82600301549081150290604051600060405180830381858888f19350505050158015610c65573d6000803e3d6000fd5b507f000000000000000000000000000000000000000000000000000000000000000073ffffffffffffffffffffffffffffffffffffffff166108fc826003015484610cb09190611824565b9081150290604051600060405180830381858888f19350505050158015610cdb573d6000803e3d6000fd5b5060018160050160146101000a81548160ff021916908315150217905550338160050160006101000a81548173ffffffffffffffffffffffffffffffffffffffff021916908373ffffffffffffffffffffffffffffffffffffffff1602179055508060010160009054906101000a900473ffffffffffffffffffffffffffffffffffffffff1673ffffffffffffffffffffffffffffffffffffffff166323b872dd303384600201546040518463ffffffff1660e01b8152600401610da1939291906114f4565b600060405180830381600087803b158015610dbb57600080fd5b505af1158015610dcf573d6000803e3d6000fd5b505050503373ffffffffffffffffffffffffffffffffffffffff168160040160009054906101000a900473ffffffffffffffffffffffffffffffffffffffff1673ffffffffffffffffffffffffffffffffffffffff168260010160009054906101000a900473ffffffffffffffffffffffffffffffffffffffff1673ffffffffffffffffffffffffffffffffffffffff167f8b4c9c8a607d67b321582dd8461041b1dc2ceeca70c8b7f37f8e02095cf2e76d8685600201548660030154604051610e9b939291906116fb565b60405180910390a45050600160008190555050565b60026000541415610ef6576040517f08c379a0000000000000000000000000000000000000000000000000000000008152600401610eed9061160b565b60405180910390fd5b600260008190555060008111610f41576040517f08c379a0000000000000000000000000000000000000000000000000000000008152600401610f389061156b565b60405180910390fd5b60016000815480929190610f54906118e8565b91905055508273ffffffffffffffffffffffffffffffffffffffff166323b872dd3330856040518463ffffffff1660e01b8152600401610f96939291906114f4565b600060405180830381600087803b158015610fb057600080fd5b505af1158015610fc4573d6000803e3d6000fd5b5050505060405180610100016040528060015481526020018473ffffffffffffffffffffffffffffffffffffffff1681526020018381526020018281526020013373ffffffffffffffffffffffffffffffffffffffff1681526020013073ffffffffffffffffffffffffffffffffffffffff16815260200160001515815260200160008152506002600060015481526020019081526020016000206000820151816000015560208201518160010160006101000a81548173ffffffffffffffffffffffffffffffffffffffff021916908373ffffffffffffffffffffffffffffffffffffffff160217905550604082015181600201556060820151816003015560808201518160040160006101000a81548173ffffffffffffffffffffffffffffffffffffffff021916908373ffffffffffffffffffffffffffffffffffffffff16021790555060a08201518160050160006101000a81548173ffffffffffffffffffffffffffffffffffffffff021916908373ffffffffffffffffffffffffffffffffffffffff16021790555060c08201518160050160146101000a81548160ff02191690831515021790555060e082015181600601559050503373ffffffffffffffffffffffffffffffffffffffff168373ffffffffffffffffffffffffffffffffffffffff167f655a0cf9c8db81512be9a76dc1c5ae5380b8816ce6ad659cd61b715e2999d59a60015485856040516111e2939291906116fb565b60405180910390a36001600081905550505050565b61128d8160405160240161120b91906114be565b6040516020818303038152906040527f2c2ecbc2000000000000000000000000000000000000000000000000000000007bffffffffffffffffffffffffffffffffffffffffffffffffffffffff19166020820180517bffffffffffffffffffffffffffffffffffffffffffffffffffffffff8381831617835250505050611290565b50565b60008151905060006a636f6e736f6c652e6c6f679050602083016000808483855afa5050505050565b6000813590506112c881611b23565b92915050565b6000813590506112dd81611b3a565b92915050565b6000806000606084860312156112f857600080fd5b6000611306868287016112b9565b9350506020611317868287016112ce565b9250506040611328868287016112ce565b9150509250925092565b60006020828403121561134457600080fd5b6000611352848285016112ce565b91505092915050565b6113648161186a565b82525050565b61137381611858565b82525050565b6113828161187c565b82525050565b611391816118c4565b82525050565b60006113a4601183611732565b91506113af8261198f565b602082019050919050565b60006113c7600f83611732565b91506113d2826119b8565b602082019050919050565b60006113ea601f83611732565b91506113f5826119e1565b602082019050919050565b600061140d603383611732565b915061141882611a0a565b604082019050919050565b6000611430601283611732565b915061143b82611a59565b602082019050919050565b6000611453602983611732565b915061145e82611a82565b604082019050919050565b6000611476601883611732565b915061148182611ad1565b602082019050919050565b6000611499601f83611732565b91506114a482611afa565b602082019050919050565b6114b8816118ba565b82525050565b60006020820190506114d3600083018461136a565b92915050565b60006020820190506114ee600083018461135b565b92915050565b6000606082019050611509600083018661136a565b611516602083018561136a565b61152360408301846114af565b949350505050565b6000602082019050818103600083015261154481611397565b9050919050565b60006020820190508181036000830152611564816113ba565b9050919050565b60006020820190508181036000830152611584816113dd565b9050919050565b600060208201905081810360008301526115a481611400565b9050919050565b600060208201905081810360008301526115c481611423565b9050919050565b600060208201905081810360008301526115e481611446565b9050919050565b6000602082019050818103600083015261160481611469565b9050919050565b600060208201905081810360008301526116248161148c565b9050919050565b600060208201905061164060008301846114af565b92915050565b60006101008201905061165c600083018b6114af565b611669602083018a611388565b61167660408301896114af565b61168360608301886114af565b611690608083018761135b565b61169d60a083018661135b565b6116aa60c0830185611379565b6116b760e08301846114af565b9998505050505050505050565b60006060820190506116d960008301866114af565b6116e660208301856114af565b6116f3604083018461135b565b949350505050565b600060608201905061171060008301866114af565b61171d60208301856114af565b61172a60408301846114af565b949350505050565b600082825260208201905092915050565b600061174e826118ba565b9150611759836118ba565b9250827fffffffffffffffffffffffffffffffffffffffffffffffffffffffffffffffff0382111561178e5761178d611931565b5b828201905092915050565b60006117a4826118ba565b91506117af836118ba565b9250826117bf576117be611960565b5b828204905092915050565b60006117d5826118ba565b91506117e0836118ba565b9250817fffffffffffffffffffffffffffffffffffffffffffffffffffffffffffffffff048311821515161561181957611818611931565b5b828202905092915050565b600061182f826118ba565b915061183a836118ba565b92508282101561184d5761184c611931565b5b828203905092915050565b60006118638261189a565b9050919050565b60006118758261189a565b9050919050565b60008115159050919050565b600061189382611858565b9050919050565b600073ffffffffffffffffffffffffffffffffffffffff82169050919050565b6000819050919050565b60006118cf826118d6565b9050919050565b60006118e18261189a565b9050919050565b60006118f3826118ba565b91507fffffffffffffffffffffffffffffffffffffffffffffffffffffffffffffffff82141561192657611925611931565b5b600182019050919050565b7f4e487b7100000000000000000000000000000000000000000000000000000000600052601160045260246000fd5b7f4e487b7100000000000000000000000000000000000000000000000000000000600052601260045260246000fd5b7f6974656d20616c726561647920736f6c64000000000000000000000000000000600082015250565b7f496e76616c6964206974656d2069640000000000000000000000000000000000600082015250565b7f5072696365206d7573742062652067726561746572207468616e207a65726f00600082015250565b7f6e6f7420656e6f75676820657468657220746f20636f766572206974656d207060008201527f7269636520616e64206d61726b65742066656500000000000000000000000000602082015250565b7f6974656d20646f65736e27742065786973740000000000000000000000000000600082015250565b7f4f6e6c79206f776e65722063616e20706572666f726d2073656c6c2046756e6360008201527f74696f6e616c6974790000000000000000000000000000000000000000000000602082015250565b7f43616e6e6f742074697020796f7572206f776e20706f73740000000000000000600082015250565b7f5265656e7472616e637947756172643a207265656e7472616e742063616c6c00600082015250565b611b2c81611888565b8114611b3757600080fd5b50565b611b43816118ba565b8114611b4e57600080fd5b5056fea2646970667358221220ee6690ff660b0bcb008be486c334401e24afffa1e7b4ffda4d48aca16e6b5e0464736f6c63430008040033",
  "linkReferences": {},
  "deployedLinkReferences": {}
}