{
  "_format": "hh-sol-artifact-1",
  "contractName": "Marketplace",
  "sourceName": "src/backend/contracts/Marketplace.sol",
  "abi": [
    {
      "inputs": [
        {
          "internalType": "uint256",
          "name": "_feePercent",
          "type": "uint256"
        }
      ],
      "stateMutability": "nonpayable",
      "type": "constructor"
    },
    {
      "anonymous": false,
      "inputs": [
        {
          "indexed": false,
          "internalType": "uint256",
          "name": "itemId",
          "type": "uint256"
        },
        {
          "indexed": true,
          "internalType": "address",
          "name": "nft",
          "type": "address"
        },
        {
          "indexed": false,
          "internalType": "uint256",
          "name": "tokenId",
          "type": "uint256"
        },
        {
          "indexed": false,
          "internalType": "uint256",
          "name": "price",
          "type": "uint256"
        },
        {
          "indexed": true,
          "internalType": "address",
          "name": "seller",
          "type": "address"
        },
        {
          "indexed": true,
          "internalType": "address",
          "name": "buyer",
          "type": "address"
        }
      ],
      "name": "Bought",
      "type": "event"
    },
    {
      "anonymous": false,
      "inputs": [
        {
          "indexed": false,
          "internalType": "uint256",
          "name": "id",
          "type": "uint256"
        },
        {
          "indexed": false,
          "internalType": "uint256",
          "name": "tipAmount",
          "type": "uint256"
        },
        {
          "indexed": false,
          "internalType": "address payable",
          "name": "owner",
          "type": "address"
        }
      ],
      "name": "NFTTipped",
      "type": "event"
    },
    {
      "anonymous": false,
      "inputs": [
        {
          "indexed": false,
          "internalType": "uint256",
          "name": "itemId",
          "type": "uint256"
        },
        {
          "indexed": true,
          "internalType": "address",
          "name": "nft",
          "type": "address"
        },
        {
          "indexed": false,
          "internalType": "uint256",
          "name": "tokenId",
          "type": "uint256"
        },
        {
          "indexed": false,
          "internalType": "uint256",
          "name": "price",
          "type": "uint256"
        },
        {
          "indexed": true,
          "internalType": "address",
          "name": "seller",
          "type": "address"
        }
      ],
      "name": "Offered",
      "type": "event"
    },
    {
      "inputs": [],
      "name": "feeAccount",
      "outputs": [
        {
          "internalType": "address payable",
          "name": "",
          "type": "address"
        }
      ],
      "stateMutability": "view",
      "type": "function"
    },
    {
      "inputs": [],
      "name": "feePercent",
      "outputs": [
        {
          "internalType": "uint256",
          "name": "",
          "type": "uint256"
        }
      ],
      "stateMutability": "view",
      "type": "function"
    },
    {
      "inputs": [
        {
          "internalType": "uint256",
          "name": "_itemId",
          "type": "uint256"
        }
      ],
      "name": "getTotalPrice",
      "outputs": [
        {
          "internalType": "uint256",
          "name": "",
          "type": "uint256"
        }
      ],
      "stateMutability": "view",
      "type": "function"
    },
    {
      "inputs": [],
      "name": "itemCount",
      "outputs": [
        {
          "internalType": "uint256",
          "name": "",
          "type": "uint256"
        }
      ],
      "stateMutability": "view",
      "type": "function"
    },
    {
      "inputs": [
        {
          "internalType": "uint256",
          "name": "",
          "type": "uint256"
        }
      ],
      "name": "items",
      "outputs": [
        {
          "internalType": "uint256",
          "name": "itemId",
          "type": "uint256"
        },
        {
          "internalType": "contract IERC721",
          "name": "nft",
          "type": "address"
        },
        {
          "internalType": "uint256",
          "name": "tokenId",
          "type": "uint256"
        },
        {
          "internalType": "uint256",
          "name": "price",
          "type": "uint256"
        },
        {
          "internalType": "address payable",
          "name": "seller",
          "type": "address"
        },
        {
          "internalType": "bool",
          "name": "sold",
          "type": "bool"
        },
        {
          "internalType": "uint256",
          "name": "tipAmount",
          "type": "uint256"
        }
      ],
      "stateMutability": "view",
      "type": "function"
    },
    {
      "inputs": [
        {
          "internalType": "contract IERC721",
          "name": "_nft",
          "type": "address"
        },
        {
          "internalType": "uint256",
          "name": "_tokenId",
          "type": "uint256"
        },
        {
          "internalType": "uint256",
          "name": "_price",
          "type": "uint256"
        }
      ],
      "name": "makeItem",
      "outputs": [],
      "stateMutability": "nonpayable",
      "type": "function"
    },
    {
      "inputs": [
        {
          "internalType": "uint256",
          "name": "_itemId",
          "type": "uint256"
        }
      ],
      "name": "purchaseItem",
      "outputs": [],
      "stateMutability": "payable",
      "type": "function"
    },
    {
      "inputs": [
        {
          "internalType": "uint256",
          "name": "_itemId",
          "type": "uint256"
        }
      ],
      "name": "sellItem",
      "outputs": [],
      "stateMutability": "nonpayable",
      "type": "function"
    },
    {
      "inputs": [
        {
          "internalType": "uint256",
          "name": "_id",
          "type": "uint256"
        }
      ],
      "name": "tipOwner",
      "outputs": [],
      "stateMutability": "payable",
      "type": "function"
    }
  ],
  "bytecode": "0x60c06040523480156200001157600080fd5b50604051620019b8380380620019b883398181016040528101906200003791906200009c565b60016000819055503373ffffffffffffffffffffffffffffffffffffffff1660808173ffffffffffffffffffffffffffffffffffffffff1660601b815250508060a0818152505050620000ec565b6000815190506200009681620000d2565b92915050565b600060208284031215620000af57600080fd5b6000620000bf8482850162000085565b91505092915050565b6000819050919050565b620000dd81620000c8565b8114620000e957600080fd5b50565b60805160601c60a05161189562000123600039600081816105af01526108980152600081816105850152610abe01526118956000f3fe6080604052600436106100865760003560e01c806391b6be9a1161005957806391b6be9a14610128578063bfb231d214610151578063ca7dd37514610194578063d38ea5bf146101d1578063fa00afc7146101ed57610086565b80635611b8c81461008b57806365e17c9d146100a75780636bfb0d01146100d25780637fd6f15c146100fd575b600080fd5b6100a560048036038101906100a091906110e1565b610216565b005b3480156100b357600080fd5b506100bc610583565b6040516100c99190611265565b60405180910390f35b3480156100de57600080fd5b506100e76105a7565b6040516100f49190611397565b60405180910390f35b34801561010957600080fd5b506101126105ad565b60405161011f9190611397565b60405180910390f35b34801561013457600080fd5b5061014f600480360381019061014a91906110e1565b6105d1565b005b34801561015d57600080fd5b50610178600480360381019061017391906110e1565b610803565b60405161018b97969594939291906113b2565b60405180910390f35b3480156101a057600080fd5b506101bb60048036038101906101b691906110e1565b610892565b6040516101c89190611397565b60405180910390f35b6101eb60048036038101906101e691906110e1565b6108f5565b005b3480156101f957600080fd5b50610214600480360381019061020f9190611092565b610cc3565b005b60008111801561022857506001548111155b610267576040517f08c379a000000000000000000000000000000000000000000000000000000000815260040161025e906112d7565b60405180910390fd5b6000600260008381526020019081526020016000206040518060e0016040529081600082015481526020016001820160009054906101000a900473ffffffffffffffffffffffffffffffffffffffff1673ffffffffffffffffffffffffffffffffffffffff1673ffffffffffffffffffffffffffffffffffffffff16815260200160028201548152602001600382015481526020016004820160009054906101000a900473ffffffffffffffffffffffffffffffffffffffff1673ffffffffffffffffffffffffffffffffffffffff1673ffffffffffffffffffffffffffffffffffffffff1681526020016004820160149054906101000a900460ff1615151515815260200160058201548152505090503373ffffffffffffffffffffffffffffffffffffffff16816080015173ffffffffffffffffffffffffffffffffffffffff1614156103eb576040517f08c379a00000000000000000000000000000000000000000000000000000000081526004016103e290611357565b60405180910390fd5b806080015173ffffffffffffffffffffffffffffffffffffffff166108fc349081150290604051600060405180830381858888f19350505050158015610435573d6000803e3d6000fd5b50348160c00181815161044891906114a0565b9150818152505080600260008481526020019081526020016000206000820151816000015560208201518160010160006101000a81548173ffffffffffffffffffffffffffffffffffffffff021916908373ffffffffffffffffffffffffffffffffffffffff160217905550604082015181600201556060820151816003015560808201518160040160006101000a81548173ffffffffffffffffffffffffffffffffffffffff021916908373ffffffffffffffffffffffffffffffffffffffff16021790555060a08201518160040160146101000a81548160ff02191690831515021790555060c082015181600501559050507faecf5b876d33d32fc589c904cf29d60963cba0189f459c2e3b30b6cf12ed72d5828260c00151836080015160405161057793929190611421565b60405180910390a15050565b7f000000000000000000000000000000000000000000000000000000000000000081565b60015481565b7f000000000000000000000000000000000000000000000000000000000000000081565b60026000541415610617576040517f08c379a000000000000000000000000000000000000000000000000000000000815260040161060e90611377565b60405180910390fd5b6002600081905550600060026000838152602001908152602001600020905060008211801561064857506001548211155b610687576040517f08c379a000000000000000000000000000000000000000000000000000000000815260040161067e90611337565b60405180910390fd5b8060010160009054906101000a900473ffffffffffffffffffffffffffffffffffffffff1673ffffffffffffffffffffffffffffffffffffffff166323b872dd333084600201546040518463ffffffff1660e01b81526004016106ec93929190611280565b600060405180830381600087803b15801561070657600080fd5b505af115801561071a573d6000803e3d6000fd5b5050505061072730610fa6565b3073ffffffffffffffffffffffffffffffffffffffff168160040160009054906101000a900473ffffffffffffffffffffffffffffffffffffffff1673ffffffffffffffffffffffffffffffffffffffff168260010160009054906101000a900473ffffffffffffffffffffffffffffffffffffffff1673ffffffffffffffffffffffffffffffffffffffff167f8b4c9c8a607d67b321582dd8461041b1dc2ceeca70c8b7f37f8e02095cf2e76d85856002015486600301546040516107ef93929190611458565b60405180910390a450600160008190555050565b60026020528060005260406000206000915090508060000154908060010160009054906101000a900473ffffffffffffffffffffffffffffffffffffffff16908060020154908060030154908060040160009054906101000a900473ffffffffffffffffffffffffffffffffffffffff16908060040160149054906101000a900460ff16908060050154905087565b600060647f000000000000000000000000000000000000000000000000000000000000000060646108c391906114a0565b60026000858152602001908152602001600020600301546108e49190611527565b6108ee91906114f6565b9050919050565b6002600054141561093b576040517f08c379a000000000000000000000000000000000000000000000000000000000815260040161093290611377565b60405180910390fd5b6002600081905550600061094e82610892565b9050600060026000848152602001908152602001600020905060008311801561097957506001548311155b6109b8576040517f08c379a00000000000000000000000000000000000000000000000000000000081526004016109af90611337565b60405180910390fd5b813410156109fb576040517f08c379a00000000000000000000000000000000000000000000000000000000081526004016109f290611317565b60405180910390fd5b8060040160149054906101000a900460ff1615610a4d576040517f08c379a0000000000000000000000000000000000000000000000000000000008152600401610a44906112b7565b60405180910390fd5b8060040160009054906101000a900473ffffffffffffffffffffffffffffffffffffffff1673ffffffffffffffffffffffffffffffffffffffff166108fc82600301549081150290604051600060405180830381858888f19350505050158015610abb573d6000803e3d6000fd5b507f000000000000000000000000000000000000000000000000000000000000000073ffffffffffffffffffffffffffffffffffffffff166108fc826003015484610b069190611581565b9081150290604051600060405180830381858888f19350505050158015610b31573d6000803e3d6000fd5b5060018160040160146101000a81548160ff0219169083151502179055508060010160009054906101000a900473ffffffffffffffffffffffffffffffffffffffff1673ffffffffffffffffffffffffffffffffffffffff166323b872dd303384600201546040518463ffffffff1660e01b8152600401610bb493929190611280565b600060405180830381600087803b158015610bce57600080fd5b505af1158015610be2573d6000803e3d6000fd5b505050503373ffffffffffffffffffffffffffffffffffffffff168160040160009054906101000a900473ffffffffffffffffffffffffffffffffffffffff1673ffffffffffffffffffffffffffffffffffffffff168260010160009054906101000a900473ffffffffffffffffffffffffffffffffffffffff1673ffffffffffffffffffffffffffffffffffffffff167f8b4c9c8a607d67b321582dd8461041b1dc2ceeca70c8b7f37f8e02095cf2e76d8685600201548660030154604051610cae93929190611458565b60405180910390a45050600160008190555050565b60026000541415610d09576040517f08c379a0000000000000000000000000000000000000000000000000000000008152600401610d0090611377565b60405180910390fd5b600260008190555060008111610d54576040517f08c379a0000000000000000000000000000000000000000000000000000000008152600401610d4b906112f7565b60405180910390fd5b60016000815480929190610d6790611645565b91905055508273ffffffffffffffffffffffffffffffffffffffff166323b872dd3330856040518463ffffffff1660e01b8152600401610da993929190611280565b600060405180830381600087803b158015610dc357600080fd5b505af1158015610dd7573d6000803e3d6000fd5b505050506040518060e0016040528060015481526020018473ffffffffffffffffffffffffffffffffffffffff1681526020018381526020018281526020013373ffffffffffffffffffffffffffffffffffffffff16815260200160001515815260200160008152506002600060015481526020019081526020016000206000820151816000015560208201518160010160006101000a81548173ffffffffffffffffffffffffffffffffffffffff021916908373ffffffffffffffffffffffffffffffffffffffff160217905550604082015181600201556060820151816003015560808201518160040160006101000a81548173ffffffffffffffffffffffffffffffffffffffff021916908373ffffffffffffffffffffffffffffffffffffffff16021790555060a08201518160040160146101000a81548160ff02191690831515021790555060c082015181600501559050503373ffffffffffffffffffffffffffffffffffffffff168373ffffffffffffffffffffffffffffffffffffffff167f655a0cf9c8db81512be9a76dc1c5ae5380b8816ce6ad659cd61b715e2999d59a6001548585604051610f9193929190611458565b60405180910390a36001600081905550505050565b61103c81604051602401610fba919061124a565b6040516020818303038152906040527f2c2ecbc2000000000000000000000000000000000000000000000000000000007bffffffffffffffffffffffffffffffffffffffffffffffffffffffff19166020820180517bffffffffffffffffffffffffffffffffffffffffffffffffffffffff838183161783525050505061103f565b50565b60008151905060006a636f6e736f6c652e6c6f679050602083016000808483855afa5050505050565b60008135905061107781611831565b92915050565b60008135905061108c81611848565b92915050565b6000806000606084860312156110a757600080fd5b60006110b586828701611068565b93505060206110c68682870161107d565b92505060406110d78682870161107d565b9150509250925092565b6000602082840312156110f357600080fd5b60006111018482850161107d565b91505092915050565b611113816115c7565b82525050565b611122816115b5565b82525050565b611131816115d9565b82525050565b61114081611621565b82525050565b600061115360118361148f565b915061115e826116ec565b602082019050919050565b6000611176600f8361148f565b915061118182611715565b602082019050919050565b6000611199601f8361148f565b91506111a48261173e565b602082019050919050565b60006111bc60338361148f565b91506111c782611767565b604082019050919050565b60006111df60128361148f565b91506111ea826117b6565b602082019050919050565b600061120260188361148f565b915061120d826117df565b602082019050919050565b6000611225601f8361148f565b915061123082611808565b602082019050919050565b61124481611617565b82525050565b600060208201905061125f6000830184611119565b92915050565b600060208201905061127a600083018461110a565b92915050565b60006060820190506112956000830186611119565b6112a26020830185611119565b6112af604083018461123b565b949350505050565b600060208201905081810360008301526112d081611146565b9050919050565b600060208201905081810360008301526112f081611169565b9050919050565b600060208201905081810360008301526113108161118c565b9050919050565b60006020820190508181036000830152611330816111af565b9050919050565b60006020820190508181036000830152611350816111d2565b9050919050565b60006020820190508181036000830152611370816111f5565b9050919050565b6000602082019050818103600083015261139081611218565b9050919050565b60006020820190506113ac600083018461123b565b92915050565b600060e0820190506113c7600083018a61123b565b6113d46020830189611137565b6113e1604083018861123b565b6113ee606083018761123b565b6113fb608083018661110a565b61140860a0830185611128565b61141560c083018461123b565b98975050505050505050565b6000606082019050611436600083018661123b565b611443602083018561123b565b611450604083018461110a565b949350505050565b600060608201905061146d600083018661123b565b61147a602083018561123b565b611487604083018461123b565b949350505050565b600082825260208201905092915050565b60006114ab82611617565b91506114b683611617565b9250827fffffffffffffffffffffffffffffffffffffffffffffffffffffffffffffffff038211156114eb576114ea61168e565b5b828201905092915050565b600061150182611617565b915061150c83611617565b92508261151c5761151b6116bd565b5b828204905092915050565b600061153282611617565b915061153d83611617565b9250817fffffffffffffffffffffffffffffffffffffffffffffffffffffffffffffffff04831182151516156115765761157561168e565b5b828202905092915050565b600061158c82611617565b915061159783611617565b9250828210156115aa576115a961168e565b5b828203905092915050565b60006115c0826115f7565b9050919050565b60006115d2826115f7565b9050919050565b60008115159050919050565b60006115f0826115b5565b9050919050565b600073ffffffffffffffffffffffffffffffffffffffff82169050919050565b6000819050919050565b600061162c82611633565b9050919050565b600061163e826115f7565b9050919050565b600061165082611617565b91507fffffffffffffffffffffffffffffffffffffffffffffffffffffffffffffffff8214156116835761168261168e565b5b600182019050919050565b7f4e487b7100000000000000000000000000000000000000000000000000000000600052601160045260246000fd5b7f4e487b7100000000000000000000000000000000000000000000000000000000600052601260045260246000fd5b7f6974656d20616c726561647920736f6c64000000000000000000000000000000600082015250565b7f496e76616c6964206974656d2069640000000000000000000000000000000000600082015250565b7f5072696365206d7573742062652067726561746572207468616e207a65726f00600082015250565b7f6e6f7420656e6f75676820657468657220746f20636f766572206974656d207060008201527f7269636520616e64206d61726b65742066656500000000000000000000000000602082015250565b7f6974656d20646f65736e27742065786973740000000000000000000000000000600082015250565b7f43616e6e6f742074697020796f7572206f776e20706f73740000000000000000600082015250565b7f5265656e7472616e637947756172643a207265656e7472616e742063616c6c00600082015250565b61183a816115e5565b811461184557600080fd5b50565b61185181611617565b811461185c57600080fd5b5056fea26469706673582212209841924bf8ac4d60af6eac21c08a9779a93da40f2e644f260db7d906bcabb85664736f6c63430008040033",
  "linkReferences": {},
  "deployedLinkReferences": {}
}