{
  "_format": "hh-sol-artifact-1",
  "contractName": "NFT",
  "sourceName": "src/backend/contracts/NFT.sol",
  "abi": [
    {
      "inputs": [],
      "stateMutability": "nonpayable",
      "type": "constructor"
    },
    {
      "anonymous": false,
      "inputs": [
        {
          "indexed": true,
          "internalType": "address",
          "name": "owner",
          "type": "address"
        },
        {
          "indexed": true,
          "internalType": "address",
          "name": "approved",
          "type": "address"
        },
        {
          "indexed": true,
          "internalType": "uint256",
          "name": "tokenId",
          "type": "uint256"
        }
      ],
      "name": "Approval",
      "type": "event"
    },
    {
      "anonymous": false,
      "inputs": [
        {
          "indexed": true,
          "internalType": "address",
          "name": "owner",
          "type": "address"
        },
        {
          "indexed": true,
          "internalType": "address",
          "name": "operator",
          "type": "address"
        },
        {
          "indexed": false,
          "internalType": "bool",
          "name": "approved",
          "type": "bool"
        }
      ],
      "name": "ApprovalForAll",
      "type": "event"
    },
    {
      "anonymous": false,
      "inputs": [
        {
          "indexed": true,
          "internalType": "address",
          "name": "from",
          "type": "address"
        },
        {
          "indexed": true,
          "internalType": "address",
          "name": "to",
          "type": "address"
        },
        {
          "indexed": true,
          "internalType": "uint256",
          "name": "tokenId",
          "type": "uint256"
        }
      ],
      "name": "Transfer",
      "type": "event"
    },
    {
      "inputs": [
        {
          "internalType": "address",
          "name": "to",
          "type": "address"
        },
        {
          "internalType": "uint256",
          "name": "tokenId",
          "type": "uint256"
        }
      ],
      "name": "approve",
      "outputs": [],
      "stateMutability": "nonpayable",
      "type": "function"
    },
    {
      "inputs": [
        {
          "internalType": "address",
          "name": "owner",
          "type": "address"
        }
      ],
      "name": "balanceOf",
      "outputs": [
        {
          "internalType": "uint256",
          "name": "",
          "type": "uint256"
        }
      ],
      "stateMutability": "view",
      "type": "function"
    },
    {
      "inputs": [
        {
          "internalType": "uint256",
          "name": "tokenId",
          "type": "uint256"
        }
      ],
      "name": "getApproved",
      "outputs": [
        {
          "internalType": "address",
          "name": "",
          "type": "address"
        }
      ],
      "stateMutability": "view",
      "type": "function"
    },
    {
      "inputs": [
        {
          "internalType": "address",
          "name": "owner",
          "type": "address"
        },
        {
          "internalType": "address",
          "name": "operator",
          "type": "address"
        }
      ],
      "name": "isApprovedForAll",
      "outputs": [
        {
          "internalType": "bool",
          "name": "",
          "type": "bool"
        }
      ],
      "stateMutability": "view",
      "type": "function"
    },
    {
      "inputs": [
        {
          "internalType": "string",
          "name": "_tokenURI",
          "type": "string"
        }
      ],
      "name": "mint",
      "outputs": [
        {
          "internalType": "uint256",
          "name": "",
          "type": "uint256"
        }
      ],
      "stateMutability": "nonpayable",
      "type": "function"
    },
    {
      "inputs": [],
      "name": "name",
      "outputs": [
        {
          "internalType": "string",
          "name": "",
          "type": "string"
        }
      ],
      "stateMutability": "view",
      "type": "function"
    },
    {
      "inputs": [
        {
          "internalType": "uint256",
          "name": "tokenId",
          "type": "uint256"
        }
      ],
      "name": "ownerOf",
      "outputs": [
        {
          "internalType": "address",
          "name": "",
          "type": "address"
        }
      ],
      "stateMutability": "view",
      "type": "function"
    },
    {
      "inputs": [
        {
          "internalType": "address",
          "name": "",
          "type": "address"
        }
      ],
      "name": "profiles",
      "outputs": [
        {
          "internalType": "uint256",
          "name": "",
          "type": "uint256"
        }
      ],
      "stateMutability": "view",
      "type": "function"
    },
    {
      "inputs": [
        {
          "internalType": "address",
          "name": "from",
          "type": "address"
        },
        {
          "internalType": "address",
          "name": "to",
          "type": "address"
        },
        {
          "internalType": "uint256",
          "name": "tokenId",
          "type": "uint256"
        }
      ],
      "name": "safeTransferFrom",
      "outputs": [],
      "stateMutability": "nonpayable",
      "type": "function"
    },
    {
      "inputs": [
        {
          "internalType": "address",
          "name": "from",
          "type": "address"
        },
        {
          "internalType": "address",
          "name": "to",
          "type": "address"
        },
        {
          "internalType": "uint256",
          "name": "tokenId",
          "type": "uint256"
        },
        {
          "internalType": "bytes",
          "name": "_data",
          "type": "bytes"
        }
      ],
      "name": "safeTransferFrom",
      "outputs": [],
      "stateMutability": "nonpayable",
      "type": "function"
    },
    {
      "inputs": [
        {
          "internalType": "address",
          "name": "operator",
          "type": "address"
        },
        {
          "internalType": "bool",
          "name": "approved",
          "type": "bool"
        }
      ],
      "name": "setApprovalForAll",
      "outputs": [],
      "stateMutability": "nonpayable",
      "type": "function"
    },
    {
      "inputs": [
        {
          "internalType": "bytes4",
          "name": "interfaceId",
          "type": "bytes4"
        }
      ],
      "name": "supportsInterface",
      "outputs": [
        {
          "internalType": "bool",
          "name": "",
          "type": "bool"
        }
      ],
      "stateMutability": "view",
      "type": "function"
    },
    {
      "inputs": [],
      "name": "symbol",
      "outputs": [
        {
          "internalType": "string",
          "name": "",
          "type": "string"
        }
      ],
      "stateMutability": "view",
      "type": "function"
    },
    {
      "inputs": [],
      "name": "tokenCount",
      "outputs": [
        {
          "internalType": "uint256",
          "name": "",
          "type": "uint256"
        }
      ],
      "stateMutability": "view",
      "type": "function"
    },
    {
      "inputs": [
        {
          "internalType": "uint256",
          "name": "tokenId",
          "type": "uint256"
        }
      ],
      "name": "tokenURI",
      "outputs": [
        {
          "internalType": "string",
          "name": "",
          "type": "string"
        }
      ],
      "stateMutability": "view",
      "type": "function"
    },
    {
      "inputs": [
        {
          "internalType": "address",
          "name": "from",
          "type": "address"
        },
        {
          "internalType": "address",
          "name": "to",
          "type": "address"
        },
        {
          "internalType": "uint256",
          "name": "tokenId",
          "type": "uint256"
        }
      ],
      "name": "transferFrom",
      "outputs": [],
      "stateMutability": "nonpayable",
      "type": "function"
    }
  ],
  "bytecode": "0x60806040523480156200001157600080fd5b506040518060400160405280600881526020017f44417070204e46540000000000000000000000000000000000000000000000008152506040518060400160405280600481526020017f4441505000000000000000000000000000000000000000000000000000000000815250816000908051906020019062000096929190620000b8565b508060019080519060200190620000af929190620000b8565b505050620001cd565b828054620000c69062000168565b90600052602060002090601f016020900481019282620000ea576000855562000136565b82601f106200010557805160ff191683800117855562000136565b8280016001018555821562000136579182015b828111156200013557825182559160200191906001019062000118565b5b50905062000145919062000149565b5090565b5b80821115620001645760008160009055506001016200014a565b5090565b600060028204905060018216806200018157607f821691505b602082108114156200019857620001976200019e565b5b50919050565b7f4e487b7100000000000000000000000000000000000000000000000000000000600052602260045260246000fd5b612c6280620001dd6000396000f3fe608060405234801561001057600080fd5b50600436106101005760003560e01c806395d89b4111610097578063bbe1562711610066578063bbe15627146102ab578063c87b56dd146102db578063d85d3d271461030b578063e985e9c51461033b57610100565b806395d89b41146102375780639f181b5e14610255578063a22cb46514610273578063b88d4fde1461028f57610100565b806323b872dd116100d357806323b872dd1461019f57806342842e0e146101bb5780636352211e146101d757806370a082311461020757610100565b806301ffc9a71461010557806306fdde0314610135578063081812fc14610153578063095ea7b314610183575b600080fd5b61011f600480360381019061011a9190611cce565b61036b565b60405161012c9190612115565b60405180910390f35b61013d61044d565b60405161014a9190612130565b60405180910390f35b61016d60048036038101906101689190611d61565b6104df565b60405161017a91906120ae565b60405180910390f35b61019d60048036038101906101989190611c92565b610564565b005b6101b960048036038101906101b49190611b8c565b61067c565b005b6101d560048036038101906101d09190611b8c565b6106dc565b005b6101f160048036038101906101ec9190611d61565b6106fc565b6040516101fe91906120ae565b60405180910390f35b610221600480360381019061021c9190611b27565b6107ae565b60405161022e9190612352565b60405180910390f35b61023f610866565b60405161024c9190612130565b60405180910390f35b61025d6108f8565b60405161026a9190612352565b60405180910390f35b61028d60048036038101906102889190611c56565b6108fe565b005b6102a960048036038101906102a49190611bdb565b610914565b005b6102c560048036038101906102c09190611b27565b610976565b6040516102d29190612352565b60405180910390f35b6102f560048036038101906102f09190611d61565b61098e565b6040516103029190612130565b60405180910390f35b61032560048036038101906103209190611d20565b610ae0565b6040516103329190612352565b60405180910390f35b61035560048036038101906103509190611b50565b610b1c565b6040516103629190612115565b60405180910390f35b60007f80ac58cd000000000000000000000000000000000000000000000000000000007bffffffffffffffffffffffffffffffffffffffffffffffffffffffff1916827bffffffffffffffffffffffffffffffffffffffffffffffffffffffff1916148061043657507f5b5e139f000000000000000000000000000000000000000000000000000000007bffffffffffffffffffffffffffffffffffffffffffffffffffffffff1916827bffffffffffffffffffffffffffffffffffffffffffffffffffffffff1916145b80610446575061044582610bb0565b5b9050919050565b60606000805461045c906125a8565b80601f0160208091040260200160405190810160405280929190818152602001828054610488906125a8565b80156104d55780601f106104aa576101008083540402835291602001916104d5565b820191906000526020600020905b8154815290600101906020018083116104b857829003601f168201915b5050505050905090565b60006104ea82610c1a565b610529576040517f08c379a0000000000000000000000000000000000000000000000000000000008152600401610520906122d2565b60405180910390fd5b6004600083815260200190815260200160002060009054906101000a900473ffffffffffffffffffffffffffffffffffffffff169050919050565b600061056f826106fc565b90508073ffffffffffffffffffffffffffffffffffffffff168373ffffffffffffffffffffffffffffffffffffffff1614156105e0576040517f08c379a00000000000000000000000000000000000000000000000000000000081526004016105d790612312565b60405180910390fd5b8073ffffffffffffffffffffffffffffffffffffffff166105ff610c86565b73ffffffffffffffffffffffffffffffffffffffff16148061062e575061062d81610628610c86565b610b1c565b5b61066d576040517f08c379a000000000000000000000000000000000000000000000000000000000815260040161066490612212565b60405180910390fd5b6106778383610c8e565b505050565b61068d610687610c86565b82610d47565b6106cc576040517f08c379a00000000000000000000000000000000000000000000000000000000081526004016106c390612332565b60405180910390fd5b6106d7838383610e25565b505050565b6106f783838360405180602001604052806000815250610914565b505050565b6000806002600084815260200190815260200160002060009054906101000a900473ffffffffffffffffffffffffffffffffffffffff169050600073ffffffffffffffffffffffffffffffffffffffff168173ffffffffffffffffffffffffffffffffffffffff1614156107a5576040517f08c379a000000000000000000000000000000000000000000000000000000000815260040161079c90612252565b60405180910390fd5b80915050919050565b60008073ffffffffffffffffffffffffffffffffffffffff168273ffffffffffffffffffffffffffffffffffffffff16141561081f576040517f08c379a000000000000000000000000000000000000000000000000000000000815260040161081690612232565b60405180910390fd5b600360008373ffffffffffffffffffffffffffffffffffffffff1673ffffffffffffffffffffffffffffffffffffffff168152602001908152602001600020549050919050565b606060018054610875906125a8565b80601f01602080910402602001604051908101604052809291908181526020018280546108a1906125a8565b80156108ee5780601f106108c3576101008083540402835291602001916108ee565b820191906000526020600020905b8154815290600101906020018083116108d157829003601f168201915b5050505050905090565b60075481565b610910610909610c86565b838361108c565b5050565b61092561091f610c86565b83610d47565b610964576040517f08c379a000000000000000000000000000000000000000000000000000000000815260040161095b90612332565b60405180910390fd5b610970848484846111f9565b50505050565b60086020528060005260406000206000915090505481565b606061099982610c1a565b6109d8576040517f08c379a00000000000000000000000000000000000000000000000000000000081526004016109cf906122b2565b60405180910390fd5b60006006600084815260200190815260200160002080546109f8906125a8565b80601f0160208091040260200160405190810160405280929190818152602001828054610a24906125a8565b8015610a715780601f10610a4657610100808354040283529160200191610a71565b820191906000526020600020905b815481529060010190602001808311610a5457829003601f168201915b505050505090506000610a82611255565b9050600081511415610a98578192505050610adb565b600082511115610acd578082604051602001610ab592919061208a565b60405160208183030381529060405292505050610adb565b610ad68461126c565b925050505b919050565b600060076000815480929190610af59061260b565b9190505550610b0633600754611313565b610b1260075483611331565b6007549050919050565b6000600560008473ffffffffffffffffffffffffffffffffffffffff1673ffffffffffffffffffffffffffffffffffffffff16815260200190815260200160002060008373ffffffffffffffffffffffffffffffffffffffff1673ffffffffffffffffffffffffffffffffffffffff16815260200190815260200160002060009054906101000a900460ff16905092915050565b60007f01ffc9a7000000000000000000000000000000000000000000000000000000007bffffffffffffffffffffffffffffffffffffffffffffffffffffffff1916827bffffffffffffffffffffffffffffffffffffffffffffffffffffffff1916149050919050565b60008073ffffffffffffffffffffffffffffffffffffffff166002600084815260200190815260200160002060009054906101000a900473ffffffffffffffffffffffffffffffffffffffff1673ffffffffffffffffffffffffffffffffffffffff1614159050919050565b600033905090565b816004600083815260200190815260200160002060006101000a81548173ffffffffffffffffffffffffffffffffffffffff021916908373ffffffffffffffffffffffffffffffffffffffff160217905550808273ffffffffffffffffffffffffffffffffffffffff16610d01836106fc565b73ffffffffffffffffffffffffffffffffffffffff167f8c5be1e5ebec7d5bd14f71427d1e84f3dd0314c0f7b2291e5b200ac8c7c3b92560405160405180910390a45050565b6000610d5282610c1a565b610d91576040517f08c379a0000000000000000000000000000000000000000000000000000000008152600401610d88906121f2565b60405180910390fd5b6000610d9c836106fc565b90508073ffffffffffffffffffffffffffffffffffffffff168473ffffffffffffffffffffffffffffffffffffffff161480610e0b57508373ffffffffffffffffffffffffffffffffffffffff16610df3846104df565b73ffffffffffffffffffffffffffffffffffffffff16145b80610e1c5750610e1b8185610b1c565b5b91505092915050565b8273ffffffffffffffffffffffffffffffffffffffff16610e45826106fc565b73ffffffffffffffffffffffffffffffffffffffff1614610e9b576040517f08c379a0000000000000000000000000000000000000000000000000000000008152600401610e9290612172565b60405180910390fd5b600073ffffffffffffffffffffffffffffffffffffffff168273ffffffffffffffffffffffffffffffffffffffff161415610f0b576040517f08c379a0000000000000000000000000000000000000000000000000000000008152600401610f02906121b2565b60405180910390fd5b610f168383836113a5565b610f21600082610c8e565b6001600360008573ffffffffffffffffffffffffffffffffffffffff1673ffffffffffffffffffffffffffffffffffffffff1681526020019081526020016000206000828254610f7191906124be565b925050819055506001600360008473ffffffffffffffffffffffffffffffffffffffff1673ffffffffffffffffffffffffffffffffffffffff1681526020019081526020016000206000828254610fc89190612437565b92505081905550816002600083815260200190815260200160002060006101000a81548173ffffffffffffffffffffffffffffffffffffffff021916908373ffffffffffffffffffffffffffffffffffffffff160217905550808273ffffffffffffffffffffffffffffffffffffffff168473ffffffffffffffffffffffffffffffffffffffff167fddf252ad1be2c89b69c2b068fc378daa952ba7f163c4a11628f55a4df523b3ef60405160405180910390a46110878383836113aa565b505050565b8173ffffffffffffffffffffffffffffffffffffffff168373ffffffffffffffffffffffffffffffffffffffff1614156110fb576040517f08c379a00000000000000000000000000000000000000000000000000000000081526004016110f2906121d2565b60405180910390fd5b80600560008573ffffffffffffffffffffffffffffffffffffffff1673ffffffffffffffffffffffffffffffffffffffff16815260200190815260200160002060008473ffffffffffffffffffffffffffffffffffffffff1673ffffffffffffffffffffffffffffffffffffffff16815260200190815260200160002060006101000a81548160ff0219169083151502179055508173ffffffffffffffffffffffffffffffffffffffff168373ffffffffffffffffffffffffffffffffffffffff167f17307eab39ab6107e8899845ad3d59bd9653f200f220920489ca2b5937696c31836040516111ec9190612115565b60405180910390a3505050565b611204848484610e25565b611210848484846113af565b61124f576040517f08c379a000000000000000000000000000000000000000000000000000000000815260040161124690612152565b60405180910390fd5b50505050565b606060405180602001604052806000815250905090565b606061127782610c1a565b6112b6576040517f08c379a00000000000000000000000000000000000000000000000000000000081526004016112ad906122f2565b60405180910390fd5b60006112c0611255565b905060008151116112e0576040518060200160405280600081525061130b565b806112ea84611546565b6040516020016112fb92919061208a565b6040516020818303038152906040525b915050919050565b61132d8282604051806020016040528060008152506116f3565b5050565b61133a82610c1a565b611379576040517f08c379a000000000000000000000000000000000000000000000000000000000815260040161137090612272565b60405180910390fd5b806006600084815260200190815260200160002090805190602001906113a092919061194b565b505050565b505050565b505050565b60006113d08473ffffffffffffffffffffffffffffffffffffffff1661174e565b15611539578373ffffffffffffffffffffffffffffffffffffffff1663150b7a026113f9610c86565b8786866040518563ffffffff1660e01b815260040161141b94939291906120c9565b602060405180830381600087803b15801561143557600080fd5b505af192505050801561146657506040513d601f19601f820116820180604052508101906114639190611cf7565b60015b6114e9573d8060008114611496576040519150601f19603f3d011682016040523d82523d6000602084013e61149b565b606091505b506000815114156114e1576040517f08c379a00000000000000000000000000000000000000000000000000000000081526004016114d890612152565b60405180910390fd5b805181602001fd5b63150b7a0260e01b7bffffffffffffffffffffffffffffffffffffffffffffffffffffffff1916817bffffffffffffffffffffffffffffffffffffffffffffffffffffffff19161491505061153e565b600190505b949350505050565b6060600082141561158e576040518060400160405280600181526020017f300000000000000000000000000000000000000000000000000000000000000081525090506116ee565b600082905060005b600082146115c05780806115a99061260b565b915050600a826115b9919061248d565b9150611596565b60008167ffffffffffffffff811115611602577f4e487b7100000000000000000000000000000000000000000000000000000000600052604160045260246000fd5b6040519080825280601f01601f1916602001820160405280156116345781602001600182028036833780820191505090505b5090505b600085146116e75760018261164d91906124be565b9150600a8561165c9190612654565b60306116689190612437565b60f81b8183815181106116a4577f4e487b7100000000000000000000000000000000000000000000000000000000600052603260045260246000fd5b60200101907effffffffffffffffffffffffffffffffffffffffffffffffffffffffffffff1916908160001a905350600a856116e0919061248d565b9450611638565b8093505050505b919050565b6116fd8383611771565b61170a60008484846113af565b611749576040517f08c379a000000000000000000000000000000000000000000000000000000000815260040161174090612152565b60405180910390fd5b505050565b6000808273ffffffffffffffffffffffffffffffffffffffff163b119050919050565b600073ffffffffffffffffffffffffffffffffffffffff168273ffffffffffffffffffffffffffffffffffffffff1614156117e1576040517f08c379a00000000000000000000000000000000000000000000000000000000081526004016117d890612292565b60405180910390fd5b6117ea81610c1a565b1561182a576040517f08c379a000000000000000000000000000000000000000000000000000000000815260040161182190612192565b60405180910390fd5b611836600083836113a5565b6001600360008473ffffffffffffffffffffffffffffffffffffffff1673ffffffffffffffffffffffffffffffffffffffff16815260200190815260200160002060008282546118869190612437565b92505081905550816002600083815260200190815260200160002060006101000a81548173ffffffffffffffffffffffffffffffffffffffff021916908373ffffffffffffffffffffffffffffffffffffffff160217905550808273ffffffffffffffffffffffffffffffffffffffff16600073ffffffffffffffffffffffffffffffffffffffff167fddf252ad1be2c89b69c2b068fc378daa952ba7f163c4a11628f55a4df523b3ef60405160405180910390a4611947600083836113aa565b5050565b828054611957906125a8565b90600052602060002090601f01602090048101928261197957600085556119c0565b82601f1061199257805160ff19168380011785556119c0565b828001600101855582156119c0579182015b828111156119bf5782518255916020019190600101906119a4565b5b5090506119cd91906119d1565b5090565b5b808211156119ea5760008160009055506001016119d2565b5090565b6000611a016119fc84612392565b61236d565b905082815260208101848484011115611a1957600080fd5b611a24848285612566565b509392505050565b6000611a3f611a3a846123c3565b61236d565b905082815260208101848484011115611a5757600080fd5b611a62848285612566565b509392505050565b600081359050611a7981612bd0565b92915050565b600081359050611a8e81612be7565b92915050565b600081359050611aa381612bfe565b92915050565b600081519050611ab881612bfe565b92915050565b600082601f830112611acf57600080fd5b8135611adf8482602086016119ee565b91505092915050565b600082601f830112611af957600080fd5b8135611b09848260208601611a2c565b91505092915050565b600081359050611b2181612c15565b92915050565b600060208284031215611b3957600080fd5b6000611b4784828501611a6a565b91505092915050565b60008060408385031215611b6357600080fd5b6000611b7185828601611a6a565b9250506020611b8285828601611a6a565b9150509250929050565b600080600060608486031215611ba157600080fd5b6000611baf86828701611a6a565b9350506020611bc086828701611a6a565b9250506040611bd186828701611b12565b9150509250925092565b60008060008060808587031215611bf157600080fd5b6000611bff87828801611a6a565b9450506020611c1087828801611a6a565b9350506040611c2187828801611b12565b925050606085013567ffffffffffffffff811115611c3e57600080fd5b611c4a87828801611abe565b91505092959194509250565b60008060408385031215611c6957600080fd5b6000611c7785828601611a6a565b9250506020611c8885828601611a7f565b9150509250929050565b60008060408385031215611ca557600080fd5b6000611cb385828601611a6a565b9250506020611cc485828601611b12565b9150509250929050565b600060208284031215611ce057600080fd5b6000611cee84828501611a94565b91505092915050565b600060208284031215611d0957600080fd5b6000611d1784828501611aa9565b91505092915050565b600060208284031215611d3257600080fd5b600082013567ffffffffffffffff811115611d4c57600080fd5b611d5884828501611ae8565b91505092915050565b600060208284031215611d7357600080fd5b6000611d8184828501611b12565b91505092915050565b611d93816124f2565b82525050565b611da281612504565b82525050565b6000611db3826123f4565b611dbd818561240a565b9350611dcd818560208601612575565b611dd681612741565b840191505092915050565b6000611dec826123ff565b611df6818561241b565b9350611e06818560208601612575565b611e0f81612741565b840191505092915050565b6000611e25826123ff565b611e2f818561242c565b9350611e3f818560208601612575565b80840191505092915050565b6000611e5860328361241b565b9150611e6382612752565b604082019050919050565b6000611e7b60258361241b565b9150611e86826127a1565b604082019050919050565b6000611e9e601c8361241b565b9150611ea9826127f0565b602082019050919050565b6000611ec160248361241b565b9150611ecc82612819565b604082019050919050565b6000611ee460198361241b565b9150611eef82612868565b602082019050919050565b6000611f07602c8361241b565b9150611f1282612891565b604082019050919050565b6000611f2a60388361241b565b9150611f35826128e0565b604082019050919050565b6000611f4d602a8361241b565b9150611f588261292f565b604082019050919050565b6000611f7060298361241b565b9150611f7b8261297e565b604082019050919050565b6000611f93602e8361241b565b9150611f9e826129cd565b604082019050919050565b6000611fb660208361241b565b9150611fc182612a1c565b602082019050919050565b6000611fd960318361241b565b9150611fe482612a45565b604082019050919050565b6000611ffc602c8361241b565b915061200782612a94565b604082019050919050565b600061201f602f8361241b565b915061202a82612ae3565b604082019050919050565b600061204260218361241b565b915061204d82612b32565b604082019050919050565b600061206560318361241b565b915061207082612b81565b604082019050919050565b6120848161255c565b82525050565b60006120968285611e1a565b91506120a28284611e1a565b91508190509392505050565b60006020820190506120c36000830184611d8a565b92915050565b60006080820190506120de6000830187611d8a565b6120eb6020830186611d8a565b6120f8604083018561207b565b818103606083015261210a8184611da8565b905095945050505050565b600060208201905061212a6000830184611d99565b92915050565b6000602082019050818103600083015261214a8184611de1565b905092915050565b6000602082019050818103600083015261216b81611e4b565b9050919050565b6000602082019050818103600083015261218b81611e6e565b9050919050565b600060208201905081810360008301526121ab81611e91565b9050919050565b600060208201905081810360008301526121cb81611eb4565b9050919050565b600060208201905081810360008301526121eb81611ed7565b9050919050565b6000602082019050818103600083015261220b81611efa565b9050919050565b6000602082019050818103600083015261222b81611f1d565b9050919050565b6000602082019050818103600083015261224b81611f40565b9050919050565b6000602082019050818103600083015261226b81611f63565b9050919050565b6000602082019050818103600083015261228b81611f86565b9050919050565b600060208201905081810360008301526122ab81611fa9565b9050919050565b600060208201905081810360008301526122cb81611fcc565b9050919050565b600060208201905081810360008301526122eb81611fef565b9050919050565b6000602082019050818103600083015261230b81612012565b9050919050565b6000602082019050818103600083015261232b81612035565b9050919050565b6000602082019050818103600083015261234b81612058565b9050919050565b6000602082019050612367600083018461207b565b92915050565b6000612377612388565b905061238382826125da565b919050565b6000604051905090565b600067ffffffffffffffff8211156123ad576123ac612712565b5b6123b682612741565b9050602081019050919050565b600067ffffffffffffffff8211156123de576123dd612712565b5b6123e782612741565b9050602081019050919050565b600081519050919050565b600081519050919050565b600082825260208201905092915050565b600082825260208201905092915050565b600081905092915050565b60006124428261255c565b915061244d8361255c565b9250827fffffffffffffffffffffffffffffffffffffffffffffffffffffffffffffffff0382111561248257612481612685565b5b828201905092915050565b60006124988261255c565b91506124a38361255c565b9250826124b3576124b26126b4565b5b828204905092915050565b60006124c98261255c565b91506124d48361255c565b9250828210156124e7576124e6612685565b5b828203905092915050565b60006124fd8261253c565b9050919050565b60008115159050919050565b60007fffffffff0000000000000000000000000000000000000000000000000000000082169050919050565b600073ffffffffffffffffffffffffffffffffffffffff82169050919050565b6000819050919050565b82818337600083830152505050565b60005b83811015612593578082015181840152602081019050612578565b838111156125a2576000848401525b50505050565b600060028204905060018216806125c057607f821691505b602082108114156125d4576125d36126e3565b5b50919050565b6125e382612741565b810181811067ffffffffffffffff8211171561260257612601612712565b5b80604052505050565b60006126168261255c565b91507fffffffffffffffffffffffffffffffffffffffffffffffffffffffffffffffff82141561264957612648612685565b5b600182019050919050565b600061265f8261255c565b915061266a8361255c565b92508261267a576126796126b4565b5b828206905092915050565b7f4e487b7100000000000000000000000000000000000000000000000000000000600052601160045260246000fd5b7f4e487b7100000000000000000000000000000000000000000000000000000000600052601260045260246000fd5b7f4e487b7100000000000000000000000000000000000000000000000000000000600052602260045260246000fd5b7f4e487b7100000000000000000000000000000000000000000000000000000000600052604160045260246000fd5b6000601f19601f8301169050919050565b7f4552433732313a207472616e7366657220746f206e6f6e20455243373231526560008201527f63656976657220696d706c656d656e7465720000000000000000000000000000602082015250565b7f4552433732313a207472616e736665722066726f6d20696e636f72726563742060008201527f6f776e6572000000000000000000000000000000000000000000000000000000602082015250565b7f4552433732313a20746f6b656e20616c7265616479206d696e74656400000000600082015250565b7f4552433732313a207472616e7366657220746f20746865207a65726f2061646460008201527f7265737300000000000000000000000000000000000000000000000000000000602082015250565b7f4552433732313a20617070726f766520746f2063616c6c657200000000000000600082015250565b7f4552433732313a206f70657261746f7220717565727920666f72206e6f6e657860008201527f697374656e7420746f6b656e0000000000000000000000000000000000000000602082015250565b7f4552433732313a20617070726f76652063616c6c6572206973206e6f74206f7760008201527f6e6572206e6f7220617070726f76656420666f7220616c6c0000000000000000602082015250565b7f4552433732313a2062616c616e636520717565727920666f7220746865207a6560008201527f726f206164647265737300000000000000000000000000000000000000000000602082015250565b7f4552433732313a206f776e657220717565727920666f72206e6f6e657869737460008201527f656e7420746f6b656e0000000000000000000000000000000000000000000000602082015250565b7f45524337323155524953746f726167653a2055524920736574206f66206e6f6e60008201527f6578697374656e7420746f6b656e000000000000000000000000000000000000602082015250565b7f4552433732313a206d696e7420746f20746865207a65726f2061646472657373600082015250565b7f45524337323155524953746f726167653a2055524920717565727920666f722060008201527f6e6f6e6578697374656e7420746f6b656e000000000000000000000000000000602082015250565b7f4552433732313a20617070726f76656420717565727920666f72206e6f6e657860008201527f697374656e7420746f6b656e0000000000000000000000000000000000000000602082015250565b7f4552433732314d657461646174613a2055524920717565727920666f72206e6f60008201527f6e6578697374656e7420746f6b656e0000000000000000000000000000000000602082015250565b7f4552433732313a20617070726f76616c20746f2063757272656e74206f776e6560008201527f7200000000000000000000000000000000000000000000000000000000000000602082015250565b7f4552433732313a207472616e736665722063616c6c6572206973206e6f74206f60008201527f776e6572206e6f7220617070726f766564000000000000000000000000000000602082015250565b612bd9816124f2565b8114612be457600080fd5b50565b612bf081612504565b8114612bfb57600080fd5b50565b612c0781612510565b8114612c1257600080fd5b50565b612c1e8161255c565b8114612c2957600080fd5b5056fea26469706673582212208e16499ef4287fbfa4b3d29851dae5bb8b480cba48dd31e520a85ac0b9b67a5a64736f6c63430008040033",
  "linkReferences": {},
  "deployedLinkReferences": {}
}